{
  "contractName": "Crowdsale",
  "abi": [
    {
      "constant": true,
      "inputs": [],
      "name": "weiRaised",
      "outputs": [
        {
          "name": "",
          "type": "uint256"
        }
      ],
      "payable": false,
      "stateMutability": "view",
      "type": "function"
    },
    {
      "constant": true,
      "inputs": [],
      "name": "wallet",
      "outputs": [
        {
          "name": "",
          "type": "address"
        }
      ],
      "payable": false,
      "stateMutability": "view",
      "type": "function"
    },
    {
      "inputs": [
        {
          "name": "_wallet",
          "type": "address"
        }
      ],
      "payable": false,
      "stateMutability": "nonpayable",
      "type": "constructor"
    },
    {
      "payable": true,
      "stateMutability": "payable",
      "type": "fallback"
    },
    {
      "constant": false,
      "inputs": [
        {
          "name": "_beneficiary",
          "type": "address"
        }
      ],
      "name": "buyTokens",
      "outputs": [],
      "payable": true,
      "stateMutability": "payable",
      "type": "function"
    }
  ],
  "bytecode": "0x608060405234801561001057600080fd5b5060405160208061035883398101806040528101908080519060200190929190505050600073ffffffffffffffffffffffffffffffffffffffff168173ffffffffffffffffffffffffffffffffffffffff161415151561006f57600080fd5b806000806101000a81548173ffffffffffffffffffffffffffffffffffffffff021916908373ffffffffffffffffffffffffffffffffffffffff16021790555050610299806100bf6000396000f300608060405260043610610057576000357c0100000000000000000000000000000000000000000000000000000000900463ffffffff1680634042b66f14610062578063521eb2731461008d578063ec8ac4d8146100e4575b6100603361011a565b005b34801561006e57600080fd5b50610077610164565b6040518082815260200191505060405180910390f35b34801561009957600080fd5b506100a261016a565b604051808273ffffffffffffffffffffffffffffffffffffffff1673ffffffffffffffffffffffffffffffffffffffff16815260200191505060405180910390f35b610118600480360381019080803573ffffffffffffffffffffffffffffffffffffffff16906020019092919050505061011a565b005b6000349050610129828261018f565b61013e816001546101df90919063ffffffff16565b60018190555061014e82826101fb565b6101566101ff565b6101608282610269565b5050565b60015481565b6000809054906101000a900473ffffffffffffffffffffffffffffffffffffffff1681565b600073ffffffffffffffffffffffffffffffffffffffff168273ffffffffffffffffffffffffffffffffffffffff16141515156101cb57600080fd5b600081141515156101db57600080fd5b5050565b600081830190508281101515156101f257fe5b80905092915050565b5050565b6000809054906101000a900473ffffffffffffffffffffffffffffffffffffffff1673ffffffffffffffffffffffffffffffffffffffff166108fc349081150290604051600060405180830381858888f19350505050158015610266573d6000803e3d6000fd5b50565b50505600a165627a7a72305820f991b874ec1df76c6ba6f3de2104886d3c36713aede6442bfc8845f930ef1ab10029",
  "source": "pragma solidity ^0.4.24;\n\nimport \"../math/SafeMath.sol\";\n\n\n/**\n * @title Crowdsale\n * @dev Crowdsale is a base contract for managing a token crowdsale,\n * allowing investors to purchase tokens with ether. This contract implements\n * such functionality in its most fundamental form and can be extended to provide additional\n * functionality and/or custom behavior.\n * The external interface represents the basic interface for purchasing tokens, and conform\n * the base architecture for crowdsales. They are *not* intended to be modified / overridden.\n * The internal interface conforms the extensible and modifiable surface of crowdsales. Override\n * the methods to add functionality. Consider using 'super' where appropriate to concatenate\n * behavior.\n */\ncontract Crowdsale {\n  using SafeMath for uint256;\n\n  // Address where funds are collected\n  address public wallet;\n\n  // Amount of wei raised\n  uint256 public weiRaised;\n\n  /**\n   * @param _wallet Address where collected funds will be forwarded to\n   */\n  constructor(address _wallet) public {\n    require(_wallet != address(0));\n    wallet = _wallet;\n  }\n\n  // -----------------------------------------\n  // Crowdsale external interface\n  // -----------------------------------------\n\n  /**\n   * @dev fallback function ***DO NOT OVERRIDE***\n   */\n  function () external payable {\n    buyTokens(msg.sender);\n  }\n\n  /**\n   * @dev low level token purchase ***DO NOT OVERRIDE***\n   * @param _beneficiary Address performing the token purchase\n   */\n  function buyTokens(address _beneficiary) public payable {\n\n    uint256 weiAmount = msg.value;\n    _preValidatePurchase(_beneficiary, weiAmount);\n\n\n    // update state\n    weiRaised = weiRaised.add(weiAmount);\n\n    _updatePurchasingState(_beneficiary, weiAmount);\n\n    _forwardFunds();\n    _postValidatePurchase(_beneficiary, weiAmount);\n  }\n\n  // -----------------------------------------\n  // Internal interface (extensible)\n  // -----------------------------------------\n\n  /**\n   * @dev Validation of an incoming purchase. Use require statements to revert state when conditions are not met. Use `super` in contracts that inherit from Crowdsale to extend their validations.\n   * Example from CappedCrowdsale.sol's _preValidatePurchase method: \n   *   super._preValidatePurchase(_beneficiary, _weiAmount);\n   *   require(weiRaised.add(_weiAmount) <= cap);\n   * @param _beneficiary Address performing the token purchase\n   * @param _weiAmount Value in wei involved in the purchase\n   */\n  function _preValidatePurchase(\n    address _beneficiary,\n    uint256 _weiAmount\n  )\n    internal\n  {\n    require(_beneficiary != address(0));\n    require(_weiAmount != 0);\n  }\n\n  /**\n   * @dev Validation of an executed purchase. Observe state and use revert statements to undo rollback when valid conditions are not met.\n   * @param _beneficiary Address performing the token purchase\n   * @param _weiAmount Value in wei involved in the purchase\n   */\n  function _postValidatePurchase(\n    address _beneficiary,\n    uint256 _weiAmount\n  )\n    internal\n  {\n    // optional override\n  }\n\n\n  /**\n   * @dev Override for extensions that require an internal state to check for validity (current user contributions, etc.)\n   * @param _beneficiary Address receiving the tokens\n   * @param _weiAmount Value in wei involved in the purchase\n   */\n  function _updatePurchasingState(\n    address _beneficiary,\n    uint256 _weiAmount\n  )\n    internal\n  {\n    // optional override\n  }\n\n  /**\n   * @dev Determines how ETH is stored/forwarded on purchases.\n   */\n  function _forwardFunds() internal {\n    wallet.transfer(msg.value);\n  }\n}\n",
  "sourcePath": "C:\\Users\\Lauri\\Documents\\dealjoy\\dealjoy_smart_contract\\contracts\\crowdsale\\Crowdsale.sol",
  "compiler": {
    "name": "solc",
    "version": "0.4.24+commit.e67f0147.Emscripten.clang"
  },
  "schemaVersion": "2.0.1",
  "updatedAt": "2018-07-24T09:09:19.453Z"
}