{
  "contractName": "OwnCrowdsale",
  "abi": [
    {
      "constant": false,
      "inputs": [
        {
          "name": "_beneficiary",
          "type": "address"
        }
      ],
      "name": "invest",
      "outputs": [],
      "payable": true,
      "stateMutability": "payable",
      "type": "function"
    },
    {
      "constant": true,
      "inputs": [
        {
          "name": "_operator",
          "type": "address"
        },
        {
          "name": "_role",
          "type": "string"
        }
      ],
      "name": "checkRole",
      "outputs": [],
      "payable": false,
      "stateMutability": "view",
      "type": "function"
    },
    {
      "constant": true,
      "inputs": [],
      "name": "hasClosed",
      "outputs": [
        {
          "name": "",
          "type": "bool"
        }
      ],
      "payable": false,
      "stateMutability": "view",
      "type": "function"
    },
    {
      "constant": true,
      "inputs": [],
      "name": "ROLE_WHITELISTED",
      "outputs": [
        {
          "name": "",
          "type": "string"
        }
      ],
      "payable": false,
      "stateMutability": "view",
      "type": "function"
    },
    {
      "constant": true,
      "inputs": [
        {
          "name": "_operator",
          "type": "address"
        },
        {
          "name": "_role",
          "type": "string"
        }
      ],
      "name": "hasRole",
      "outputs": [
        {
          "name": "",
          "type": "bool"
        }
      ],
      "payable": false,
      "stateMutability": "view",
      "type": "function"
    },
    {
      "constant": false,
      "inputs": [
        {
          "name": "_operators",
          "type": "address[]"
        }
      ],
      "name": "removeAddressesFromWhitelist",
      "outputs": [],
      "payable": false,
      "stateMutability": "nonpayable",
      "type": "function"
    },
    {
      "constant": false,
      "inputs": [
        {
          "name": "_operator",
          "type": "address"
        }
      ],
      "name": "removeAddressFromWhitelist",
      "outputs": [],
      "payable": false,
      "stateMutability": "nonpayable",
      "type": "function"
    },
    {
      "constant": true,
      "inputs": [],
      "name": "cap",
      "outputs": [
        {
          "name": "",
          "type": "uint256"
        }
      ],
      "payable": false,
      "stateMutability": "view",
      "type": "function"
    },
    {
      "constant": false,
      "inputs": [],
      "name": "unpause",
      "outputs": [],
      "payable": false,
      "stateMutability": "nonpayable",
      "type": "function"
    },
    {
      "constant": true,
      "inputs": [],
      "name": "weiRaised",
      "outputs": [
        {
          "name": "",
          "type": "uint256"
        }
      ],
      "payable": false,
      "stateMutability": "view",
      "type": "function"
    },
    {
      "constant": true,
      "inputs": [],
      "name": "closingTime",
      "outputs": [
        {
          "name": "",
          "type": "uint256"
        }
      ],
      "payable": false,
      "stateMutability": "view",
      "type": "function"
    },
    {
      "constant": true,
      "inputs": [],
      "name": "capReached",
      "outputs": [
        {
          "name": "",
          "type": "bool"
        }
      ],
      "payable": false,
      "stateMutability": "view",
      "type": "function"
    },
    {
      "constant": true,
      "inputs": [],
      "name": "wallet",
      "outputs": [
        {
          "name": "",
          "type": "address"
        }
      ],
      "payable": false,
      "stateMutability": "view",
      "type": "function"
    },
    {
      "constant": true,
      "inputs": [],
      "name": "paused",
      "outputs": [
        {
          "name": "",
          "type": "bool"
        }
      ],
      "payable": false,
      "stateMutability": "view",
      "type": "function"
    },
    {
      "constant": false,
      "inputs": [],
      "name": "renounceOwnership",
      "outputs": [],
      "payable": false,
      "stateMutability": "nonpayable",
      "type": "function"
    },
    {
      "constant": false,
      "inputs": [
        {
          "name": "_operator",
          "type": "address"
        }
      ],
      "name": "addAddressToWhitelist",
      "outputs": [],
      "payable": false,
      "stateMutability": "nonpayable",
      "type": "function"
    },
    {
      "constant": false,
      "inputs": [],
      "name": "pause",
      "outputs": [],
      "payable": false,
      "stateMutability": "nonpayable",
      "type": "function"
    },
    {
      "constant": true,
      "inputs": [],
      "name": "minInvestment",
      "outputs": [
        {
          "name": "",
          "type": "uint256"
        }
      ],
      "payable": false,
      "stateMutability": "view",
      "type": "function"
    },
    {
      "constant": true,
      "inputs": [],
      "name": "owner",
      "outputs": [
        {
          "name": "",
          "type": "address"
        }
      ],
      "payable": false,
      "stateMutability": "view",
      "type": "function"
    },
    {
      "constant": true,
      "inputs": [
        {
          "name": "_operator",
          "type": "address"
        }
      ],
      "name": "whitelist",
      "outputs": [
        {
          "name": "",
          "type": "bool"
        }
      ],
      "payable": false,
      "stateMutability": "view",
      "type": "function"
    },
    {
      "constant": true,
      "inputs": [],
      "name": "openingTime",
      "outputs": [
        {
          "name": "",
          "type": "uint256"
        }
      ],
      "payable": false,
      "stateMutability": "view",
      "type": "function"
    },
    {
      "constant": false,
      "inputs": [
        {
          "name": "_operators",
          "type": "address[]"
        }
      ],
      "name": "addAddressesToWhitelist",
      "outputs": [],
      "payable": false,
      "stateMutability": "nonpayable",
      "type": "function"
    },
    {
      "constant": false,
      "inputs": [
        {
          "name": "_newOwner",
          "type": "address"
        }
      ],
      "name": "transferOwnership",
      "outputs": [],
      "payable": false,
      "stateMutability": "nonpayable",
      "type": "function"
    },
    {
      "inputs": [
        {
          "name": "_wallet",
          "type": "address"
        },
        {
          "name": "_minInvestment",
          "type": "uint256"
        },
        {
          "name": "_openingTime",
          "type": "uint256"
        },
        {
          "name": "_closingTime",
          "type": "uint256"
        },
        {
          "name": "_cap",
          "type": "uint256"
        }
      ],
      "payable": false,
      "stateMutability": "nonpayable",
      "type": "constructor"
    },
    {
      "payable": true,
      "stateMutability": "payable",
      "type": "fallback"
    },
    {
      "anonymous": false,
      "inputs": [],
      "name": "Pause",
      "type": "event"
    },
    {
      "anonymous": false,
      "inputs": [],
      "name": "Unpause",
      "type": "event"
    },
    {
      "anonymous": false,
      "inputs": [
        {
          "indexed": true,
          "name": "purchaser",
          "type": "address"
        },
        {
          "indexed": true,
          "name": "beneficiary",
          "type": "address"
        },
        {
          "indexed": false,
          "name": "value",
          "type": "uint256"
        }
      ],
      "name": "EthReceived",
      "type": "event"
    },
    {
      "anonymous": false,
      "inputs": [
        {
          "indexed": true,
          "name": "operator",
          "type": "address"
        },
        {
          "indexed": false,
          "name": "role",
          "type": "string"
        }
      ],
      "name": "RoleAdded",
      "type": "event"
    },
    {
      "anonymous": false,
      "inputs": [
        {
          "indexed": true,
          "name": "operator",
          "type": "address"
        },
        {
          "indexed": false,
          "name": "role",
          "type": "string"
        }
      ],
      "name": "RoleRemoved",
      "type": "event"
    },
    {
      "anonymous": false,
      "inputs": [
        {
          "indexed": true,
          "name": "previousOwner",
          "type": "address"
        }
      ],
      "name": "OwnershipRenounced",
      "type": "event"
    },
    {
      "anonymous": false,
      "inputs": [
        {
          "indexed": true,
          "name": "previousOwner",
          "type": "address"
        },
        {
          "indexed": true,
          "name": "newOwner",
          "type": "address"
        }
      ],
      "name": "OwnershipTransferred",
      "type": "event"
    },
    {
      "constant": false,
      "inputs": [],
      "name": "sendEther",
      "outputs": [],
      "payable": true,
      "stateMutability": "payable",
      "type": "function"
    }
  ],
  "bytecode": "0x60806040526000600760006101000a81548160ff02191690831515021790555034801561002b57600080fd5b5060405160a08061186a833981018060405281019080805190602001909291908051906020019092919080519060200190929190805190602001909291908051906020019092919050505080838387336000806101000a81548173ffffffffffffffffffffffffffffffffffffffff021916908373ffffffffffffffffffffffffffffffffffffffff160217905550600073ffffffffffffffffffffffffffffffffffffffff168173ffffffffffffffffffffffffffffffffffffffff16141515156100f657600080fd5b80600260006101000a81548173ffffffffffffffffffffffffffffffffffffffff021916908373ffffffffffffffffffffffffffffffffffffffff1602179055505042821015151561014757600080fd5b81811015151561015657600080fd5b8160048190555080600581905550505060008111151561017557600080fd5b80600681905550508360088190555050505050506116d2806101986000396000f30060806040526004361061013e576000357c0100000000000000000000000000000000000000000000000000000000900463ffffffff16806303f9c793146101495780630988ca8c1461017f5780630e29df22146102085780631515bc2b1461021257806318b919e914610241578063217fe6c6146102d157806324953eaa14610372578063286dd3f5146103d8578063355274ea1461041b5780633f4ba83a146104465780634042b66f1461045d5780634b6753bc146104885780634f935945146104b3578063521eb273146104e25780635c975abb14610539578063715018a6146105685780637b9417c81461057f5780638456cb59146105c25780638ac2c680146105d95780638da5cb5b146106045780639b19251a1461065b578063b7a8807c146106b6578063e2ec6ec3146106e1578063f2fde38b14610747575b6101473361078a565b005b61017d600480360381019080803573ffffffffffffffffffffffffffffffffffffffff16906020019092919050505061078a565b005b34801561018b57600080fd5b50610206600480360381019080803573ffffffffffffffffffffffffffffffffffffffff169060200190929190803590602001908201803590602001908080601f0160208091040260200160405190810160405280939291908181526020018383808284378201915050505050509192919290505050610839565b005b6102106108ba565b005b34801561021e57600080fd5b506102276108c5565b604051808215151515815260200191505060405180910390f35b34801561024d57600080fd5b506102566108d1565b6040518080602001828103825283818151815260200191508051906020019080838360005b8381101561029657808201518184015260208101905061027b565b50505050905090810190601f1680156102c35780820380516001836020036101000a031916815260200191505b509250505060405180910390f35b3480156102dd57600080fd5b50610358600480360381019080803573ffffffffffffffffffffffffffffffffffffffff169060200190929190803590602001908201803590602001908080601f016020809104026020016040519081016040528093929190818152602001838380828437820191505050505050919291929050505061090a565b604051808215151515815260200191505060405180910390f35b34801561037e57600080fd5b506103d660048036038101908080359060200190820180359060200190808060200260200160405190810160405280939291908181526020018383602002808284378201915050505050509192919290505050610991565b005b3480156103e457600080fd5b50610419600480360381019080803573ffffffffffffffffffffffffffffffffffffffff169060200190929190505050610a2d565b005b34801561042757600080fd5b50610430610aca565b6040518082815260200191505060405180910390f35b34801561045257600080fd5b5061045b610ad0565b005b34801561046957600080fd5b50610472610b8f565b6040518082815260200191505060405180910390f35b34801561049457600080fd5b5061049d610b95565b6040518082815260200191505060405180910390f35b3480156104bf57600080fd5b506104c8610b9b565b604051808215151515815260200191505060405180910390f35b3480156104ee57600080fd5b506104f7610baa565b604051808273ffffffffffffffffffffffffffffffffffffffff1673ffffffffffffffffffffffffffffffffffffffff16815260200191505060405180910390f35b34801561054557600080fd5b5061054e610bd0565b604051808215151515815260200191505060405180910390f35b34801561057457600080fd5b5061057d610be3565b005b34801561058b57600080fd5b506105c0600480360381019080803573ffffffffffffffffffffffffffffffffffffffff169060200190929190505050610ce5565b005b3480156105ce57600080fd5b506105d7610d82565b005b3480156105e557600080fd5b506105ee610e42565b6040518082815260200191505060405180910390f35b34801561061057600080fd5b50610619610e48565b604051808273ffffffffffffffffffffffffffffffffffffffff1673ffffffffffffffffffffffffffffffffffffffff16815260200191505060405180910390f35b34801561066757600080fd5b5061069c600480360381019080803573ffffffffffffffffffffffffffffffffffffffff169060200190929190505050610e6d565b604051808215151515815260200191505060405180910390f35b3480156106c257600080fd5b506106cb610eb5565b6040518082815260200191505060405180910390f35b3480156106ed57600080fd5b5061074560048036038101908080359060200190820180359060200190808060200260200160405190810160405280939291908181526020018383602002808284378201915050505050509192919290505050610ebb565b005b34801561075357600080fd5b50610788600480360381019080803573ffffffffffffffffffffffffffffffffffffffff169060200190929190505050610f57565b005b60003490506107998282610fbe565b6107ae8160035461108890919063ffffffff16565b6003819055508173ffffffffffffffffffffffffffffffffffffffff163373ffffffffffffffffffffffffffffffffffffffff167f5e6ccb9a693d99828b0def2431c0e7ec3fe22089eff82b7fce54f6a6bf84d39d836040518082815260200191505060405180910390a361082382826110a4565b61082b6110a8565b6108358282611113565b5050565b6108b6826001836040518082805190602001908083835b6020831015156108755780518252602082019150602081019050602083039250610850565b6001836020036101000a038019825116818451168082178552505050505050905001915050908152602001604051809103902061111790919063ffffffff16565b5050565b6108c33361078a565b565b60006005544211905090565b6040805190810160405280600981526020017f77686974656c697374000000000000000000000000000000000000000000000081525081565b6000610989836001846040518082805190602001908083835b6020831015156109485780518252602082019150602081019050602083039250610923565b6001836020036101000a038019825116818451168082178552505050505050905001915050908152602001604051809103902061113090919063ffffffff16565b905092915050565b60008060009054906101000a900473ffffffffffffffffffffffffffffffffffffffff1673ffffffffffffffffffffffffffffffffffffffff163373ffffffffffffffffffffffffffffffffffffffff161415156109ee57600080fd5b600090505b8151811015610a2957610a1c8282815181101515610a0d57fe5b90602001906020020151610a2d565b80806001019150506109f3565b5050565b6000809054906101000a900473ffffffffffffffffffffffffffffffffffffffff1673ffffffffffffffffffffffffffffffffffffffff163373ffffffffffffffffffffffffffffffffffffffff16141515610a8857600080fd5b610ac7816040805190810160405280600981526020017f77686974656c6973740000000000000000000000000000000000000000000000815250611189565b50565b60065481565b6000809054906101000a900473ffffffffffffffffffffffffffffffffffffffff1673ffffffffffffffffffffffffffffffffffffffff163373ffffffffffffffffffffffffffffffffffffffff16141515610b2b57600080fd5b600760009054906101000a900460ff161515610b4657600080fd5b6000600760006101000a81548160ff0219169083151502179055507f7805862f689e2f13df9f062ff482ad3ad112aca9e0847911ed832e158c525b3360405160405180910390a1565b60035481565b60055481565b60006006546003541015905090565b600260009054906101000a900473ffffffffffffffffffffffffffffffffffffffff1681565b600760009054906101000a900460ff1681565b6000809054906101000a900473ffffffffffffffffffffffffffffffffffffffff1673ffffffffffffffffffffffffffffffffffffffff163373ffffffffffffffffffffffffffffffffffffffff16141515610c3e57600080fd5b6000809054906101000a900473ffffffffffffffffffffffffffffffffffffffff1673ffffffffffffffffffffffffffffffffffffffff167ff8df31144d9c2f0f6b59d69b8b98abd5459d07f2742c4df920b25aae33c6482060405160405180910390a260008060006101000a81548173ffffffffffffffffffffffffffffffffffffffff021916908373ffffffffffffffffffffffffffffffffffffffff160217905550565b6000809054906101000a900473ffffffffffffffffffffffffffffffffffffffff1673ffffffffffffffffffffffffffffffffffffffff163373ffffffffffffffffffffffffffffffffffffffff16141515610d4057600080fd5b610d7f816040805190810160405280600981526020017f77686974656c69737400000000000000000000000000000000000000000000008152506112bd565b50565b6000809054906101000a900473ffffffffffffffffffffffffffffffffffffffff1673ffffffffffffffffffffffffffffffffffffffff163373ffffffffffffffffffffffffffffffffffffffff16141515610ddd57600080fd5b600760009054906101000a900460ff16151515610df957600080fd5b6001600760006101000a81548160ff0219169083151502179055507f6985a02210a168e66602d3235cb6db0e70f92b3ba4d376a33c0f3d9434bff62560405160405180910390a1565b60085481565b6000809054906101000a900473ffffffffffffffffffffffffffffffffffffffff1681565b6000610eae826040805190810160405280600981526020017f77686974656c697374000000000000000000000000000000000000000000000081525061090a565b9050919050565b60045481565b60008060009054906101000a900473ffffffffffffffffffffffffffffffffffffffff1673ffffffffffffffffffffffffffffffffffffffff163373ffffffffffffffffffffffffffffffffffffffff16141515610f1857600080fd5b600090505b8151811015610f5357610f468282815181101515610f3757fe5b90602001906020020151610ce5565b8080600101915050610f1d565b5050565b6000809054906101000a900473ffffffffffffffffffffffffffffffffffffffff1673ffffffffffffffffffffffffffffffffffffffff163373ffffffffffffffffffffffffffffffffffffffff16141515610fb257600080fd5b610fbb816113f1565b50565b600760009054906101000a900460ff16151515610fda57600080fd5b610fe482826114eb565b6008548110151515611084576040517f08c379a00000000000000000000000000000000000000000000000000000000081526004018080602001828103825260218152602001807f536f7272792c206d696e696d756d20696e766573746d656e74206e6f74206d6581526020017f740000000000000000000000000000000000000000000000000000000000000081525060400191505060405180910390fd5b5050565b6000818301905082811015151561109b57fe5b80905092915050565b5050565b600260009054906101000a900473ffffffffffffffffffffffffffffffffffffffff1673ffffffffffffffffffffffffffffffffffffffff166108fc349081150290604051600060405180830381858888f19350505050158015611110573d6000803e3d6000fd5b50565b5050565b6111218282611130565b151561112c57600080fd5b5050565b60008260000160008373ffffffffffffffffffffffffffffffffffffffff1673ffffffffffffffffffffffffffffffffffffffff16815260200190815260200160002060009054906101000a900460ff16905092915050565b611206826001836040518082805190602001908083835b6020831015156111c557805182526020820191506020810190506020830392506111a0565b6001836020036101000a038019825116818451168082178552505050505050905001915050908152602001604051809103902061151e90919063ffffffff16565b8173ffffffffffffffffffffffffffffffffffffffff167fd211483f91fc6eff862467f8de606587a30c8fc9981056f051b897a418df803a826040518080602001828103825283818151815260200191508051906020019080838360005b8381101561127f578082015181840152602081019050611264565b50505050905090810190601f1680156112ac5780820380516001836020036101000a031916815260200191505b509250505060405180910390a25050565b61133a826001836040518082805190602001908083835b6020831015156112f957805182526020820191506020810190506020830392506112d4565b6001836020036101000a038019825116818451168082178552505050505050905001915050908152602001604051809103902061157c90919063ffffffff16565b8173ffffffffffffffffffffffffffffffffffffffff167fbfec83d64eaa953f2708271a023ab9ee82057f8f3578d548c1a4ba0b5b700489826040518080602001828103825283818151815260200191508051906020019080838360005b838110156113b3578082015181840152602081019050611398565b50505050905090810190601f1680156113e05780820380516001836020036101000a031916815260200191505b509250505060405180910390a25050565b600073ffffffffffffffffffffffffffffffffffffffff168173ffffffffffffffffffffffffffffffffffffffff161415151561142d57600080fd5b8073ffffffffffffffffffffffffffffffffffffffff166000809054906101000a900473ffffffffffffffffffffffffffffffffffffffff1673ffffffffffffffffffffffffffffffffffffffff167f8be0079c531659141344cd1fd0a4f28419497f9722a3daafe3b4186f6b6457e060405160405180910390a3806000806101000a81548173ffffffffffffffffffffffffffffffffffffffff021916908373ffffffffffffffffffffffffffffffffffffffff16021790555050565b6114f582826115da565b60065461150d8260035461108890919063ffffffff16565b1115151561151a57600080fd5b5050565b60008260000160008373ffffffffffffffffffffffffffffffffffffffff1673ffffffffffffffffffffffffffffffffffffffff16815260200190815260200160002060006101000a81548160ff0219169083151502179055505050565b60018260000160008373ffffffffffffffffffffffffffffffffffffffff1673ffffffffffffffffffffffffffffffffffffffff16815260200190815260200160002060006101000a81548160ff0219169083151502179055505050565b60045442101580156115ee57506005544211155b15156115f957600080fd5b6116038282611607565b5050565b81611647816040805190810160405280600981526020017f77686974656c6973740000000000000000000000000000000000000000000000815250610839565b6116518383611656565b505050565b600073ffffffffffffffffffffffffffffffffffffffff168273ffffffffffffffffffffffffffffffffffffffff161415151561169257600080fd5b600081141515156116a257600080fd5b50505600a165627a7a72305820a1f733ba71fd0c9bb708b582db73ed8696c7ba30e27f33bd013455de67d0cf480029",
  "source": "pragma solidity ^0.4.24;\n\nimport \"./validation/WhitelistedCrowdsale.sol\";\nimport \"./validation/TimedCrowdsale.sol\";\nimport \"./validation/CappedCrowdsale.sol\";\nimport \"../lifecycle/Pausable.sol\";\nimport \"./Crowdsale.sol\";\n\ncontract OwnCrowdsale is WhitelistedCrowdsale, TimedCrowdsale, CappedCrowdsale, Pausable {\n\n\t// Minimum investment for this sale period, in weis\n\tuint256 public minInvestment;\n\n  constructor(\n\taddress _wallet, \n\tuint256 _minInvestment,\n\tuint256 _openingTime,\n\tuint256 _closingTime,\n\tuint256 _cap\n\t)\n  Crowdsale(_wallet)\n  TimedCrowdsale(_openingTime, _closingTime)\n  CappedCrowdsale(_cap)\n  public {\n\tminInvestment = _minInvestment;\n  }\n  \n  /**\n   * @dev Validation of an incoming purchase. Use require statements to revert state when conditions are not met. Use `super` in contracts that inherit from Crowdsale to extend their validations.\n   * Example from CappedCrowdsale.sol's _preValidatePurchase method: \n   *   super._preValidatePurchase(_beneficiary, _weiAmount);\n   *   require(weiRaised.add(_weiAmount) <= cap);\n   * @param _beneficiary Address performing the token purchase\n   * @param _weiAmount Value in wei involved in the purchase\n   */\n  function _preValidatePurchase(\n    address _beneficiary,\n    uint256 _weiAmount\n  )\n    whenNotPaused\n    internal\n  {\n    super._preValidatePurchase(_beneficiary, _weiAmount);\n\trequire(_weiAmount >= minInvestment, \"Sorry, minimum investment not met\");\n  }\n\n\tfunction sendEther() payable {\n\t\tinvest(msg.sender);\n\t}\n}\n",
  "sourcePath": "C:\\Users\\Lauri\\Documents\\dealjoy\\dealjoy_smart_contract\\contracts\\crowdsale\\OwnCrowdsale.sol",
  "compiler": {
    "name": "solc",
    "version": "0.4.24+commit.e67f0147.Emscripten.clang"
  },
  "schemaVersion": "2.0.1",
  "updatedAt": "2018-07-30T06:59:58.567Z"
}